{
  "_format": "hh-sol-artifact-1",
  "contractName": "Paypal",
  "sourceName": "contracts/Paypal.sol",
  "abi": [
    {
      "inputs": [],
      "stateMutability": "nonpayable",
      "type": "constructor"
    },
    {
      "inputs": [
        {
          "internalType": "string",
          "name": "_name",
          "type": "string"
        }
      ],
      "name": "addName",
      "outputs": [],
      "stateMutability": "nonpayable",
      "type": "function"
    },
    {
      "inputs": [
        {
          "internalType": "address",
          "name": "user",
          "type": "address"
        },
        {
          "internalType": "uint256",
          "name": "_amount",
          "type": "uint256"
        },
        {
          "internalType": "string",
          "name": "_message",
          "type": "string"
        }
      ],
      "name": "createRequest",
      "outputs": [],
      "stateMutability": "nonpayable",
      "type": "function"
    },
    {
      "inputs": [
        {
          "internalType": "address",
          "name": "_user",
          "type": "address"
        }
      ],
      "name": "getMyHistory",
      "outputs": [
        {
          "components": [
            {
              "internalType": "string",
              "name": "action",
              "type": "string"
            },
            {
              "internalType": "uint256",
              "name": "amount",
              "type": "uint256"
            },
            {
              "internalType": "string",
              "name": "message",
              "type": "string"
            },
            {
              "internalType": "address",
              "name": "otherPartyAddress",
              "type": "address"
            },
            {
              "internalType": "string",
              "name": "otherPartyName",
              "type": "string"
            }
          ],
          "internalType": "struct Paypal.SendReceive[]",
          "name": "",
          "type": "tuple[]"
        }
      ],
      "stateMutability": "view",
      "type": "function"
    },
    {
      "inputs": [
        {
          "internalType": "address",
          "name": "_user",
          "type": "address"
        }
      ],
      "name": "getMyRequests",
      "outputs": [
        {
          "components": [
            {
              "internalType": "address",
              "name": "requestor",
              "type": "address"
            },
            {
              "internalType": "uint256",
              "name": "amount",
              "type": "uint256"
            },
            {
              "internalType": "string",
              "name": "message",
              "type": "string"
            },
            {
              "internalType": "string",
              "name": "name",
              "type": "string"
            }
          ],
          "internalType": "struct Paypal.Request[]",
          "name": "",
          "type": "tuple[]"
        }
      ],
      "stateMutability": "view",
      "type": "function"
    },
    {
      "inputs": [
        {
          "internalType": "address",
          "name": "_user",
          "type": "address"
        }
      ],
      "name": "getName",
      "outputs": [
        {
          "internalType": "string",
          "name": "",
          "type": "string"
        }
      ],
      "stateMutability": "view",
      "type": "function"
    },
    {
      "inputs": [],
      "name": "owner",
      "outputs": [
        {
          "internalType": "address",
          "name": "",
          "type": "address"
        }
      ],
      "stateMutability": "view",
      "type": "function"
    },
    {
      "inputs": [
        {
          "internalType": "uint256",
          "name": "_request",
          "type": "uint256"
        }
      ],
      "name": "payRequest",
      "outputs": [],
      "stateMutability": "payable",
      "type": "function"
    }
  ],
  "bytecode": "0x608060405234801561001057600080fd5b50336000806101000a81548173ffffffffffffffffffffffffffffffffffffffff021916908373ffffffffffffffffffffffffffffffffffffffff160217905550611f81806100606000396000f3fe6080604052600436106100705760003560e01c80635fd4b08a1161004e5780635fd4b08a1461011857806363d4dd3b146101555780638da5cb5b14610171578063ba9a7a9e1461019c57610070565b806311456b4714610075578063347b1b831461009e578063370068aa146100db575b600080fd5b34801561008157600080fd5b5061009c60048036038101906100979190611405565b6101c5565b005b3480156100aa57600080fd5b506100c560048036038101906100c091906114ac565b61023b565b6040516100d291906116ac565b60405180910390f35b3480156100e757600080fd5b5061010260048036038101906100fd91906114ac565b610547565b60405161010f9190611814565b60405180910390f35b34801561012457600080fd5b5061013f600480360381019061013a91906114ac565b6107fb565b60405161014c9190611880565b60405180910390f35b61016f600480360381019061016a91906118ce565b610962565b005b34801561017d57600080fd5b50610186610d46565b604051610193919061190a565b60405180910390f35b3480156101a857600080fd5b506101c360048036038101906101be9190611925565b610d6a565b005b6000600160003373ffffffffffffffffffffffffffffffffffffffff1673ffffffffffffffffffffffffffffffffffffffff1681526020019081526020016000209050818160000190816102199190611ba0565b5060018160010160006101000a81548160ff0219169083151502179055505050565b60606000600260008473ffffffffffffffffffffffffffffffffffffffff1673ffffffffffffffffffffffffffffffffffffffff1681526020019081526020016000208054905067ffffffffffffffff81111561029b5761029a6112da565b5b6040519080825280602002602001820160405280156102d457816020015b6102c16111cb565b8152602001906001900390816102b95790505b50905060005b600260008573ffffffffffffffffffffffffffffffffffffffff1673ffffffffffffffffffffffffffffffffffffffff1681526020019081526020016000208054905081101561053d57600260008573ffffffffffffffffffffffffffffffffffffffff1673ffffffffffffffffffffffffffffffffffffffff168152602001908152602001600020818154811061037557610374611c72565b5b90600052602060002090600402016040518060800160405290816000820160009054906101000a900473ffffffffffffffffffffffffffffffffffffffff1673ffffffffffffffffffffffffffffffffffffffff1673ffffffffffffffffffffffffffffffffffffffff168152602001600182015481526020016002820180546103fe906119c3565b80601f016020809104026020016040519081016040528092919081815260200182805461042a906119c3565b80156104775780601f1061044c57610100808354040283529160200191610477565b820191906000526020600020905b81548152906001019060200180831161045a57829003601f168201915b50505050508152602001600382018054610490906119c3565b80601f01602080910402602001604051908101604052809291908181526020018280546104bc906119c3565b80156105095780601f106104de57610100808354040283529160200191610509565b820191906000526020600020905b8154815290600101906020018083116104ec57829003601f168201915b50505050508152505082828151811061052557610524611c72565b5b602002602001018190525080806001019150506102da565b5080915050919050565b6060600360008373ffffffffffffffffffffffffffffffffffffffff1673ffffffffffffffffffffffffffffffffffffffff168152602001908152602001600020805480602002602001604051908101604052809291908181526020016000905b828210156107f057838290600052602060002090600502016040518060a00160405290816000820180546105db906119c3565b80601f0160208091040260200160405190810160405280929190818152602001828054610607906119c3565b80156106545780601f1061062957610100808354040283529160200191610654565b820191906000526020600020905b81548152906001019060200180831161063757829003601f168201915b5050505050815260200160018201548152602001600282018054610677906119c3565b80601f01602080910402602001604051908101604052809291908181526020018280546106a3906119c3565b80156106f05780601f106106c5576101008083540402835291602001916106f0565b820191906000526020600020905b8154815290600101906020018083116106d357829003601f168201915b505050505081526020016003820160009054906101000a900473ffffffffffffffffffffffffffffffffffffffff1673ffffffffffffffffffffffffffffffffffffffff1673ffffffffffffffffffffffffffffffffffffffff16815260200160048201805461075f906119c3565b80601f016020809104026020016040519081016040528092919081815260200182805461078b906119c3565b80156107d85780601f106107ad576101008083540402835291602001916107d8565b820191906000526020600020905b8154815290600101906020018083116107bb57829003601f168201915b505050505081525050815260200190600101906105a8565b505050509050919050565b6060600160008373ffffffffffffffffffffffffffffffffffffffff1673ffffffffffffffffffffffffffffffffffffffff16815260200190815260200160002060010160009054906101000a900460ff161561092457600160008373ffffffffffffffffffffffffffffffffffffffff1673ffffffffffffffffffffffffffffffffffffffff168152602001908152602001600020600001805461089f906119c3565b80601f01602080910402602001604051908101604052809291908181526020018280546108cb906119c3565b80156109185780601f106108ed57610100808354040283529160200191610918565b820191906000526020600020905b8154815290600101906020018083116108fb57829003601f168201915b5050505050905061095d565b6040518060400160405280600e81526020017f416e6f6e796d6f7573205573657200000000000000000000000000000000000081525090505b919050565b600260003373ffffffffffffffffffffffffffffffffffffffff1673ffffffffffffffffffffffffffffffffffffffff1681526020019081526020016000208054905081106109e6576040517f08c379a00000000000000000000000000000000000000000000000000000000081526004016109dd90611ced565b60405180910390fd5b6000600260003373ffffffffffffffffffffffffffffffffffffffff1673ffffffffffffffffffffffffffffffffffffffff16815260200190815260200160002090506000818381548110610a3e57610a3d611c72565b5b906000526020600020906004020190506000670de0b6b3a76400008260010154610a689190611d3c565b9050803414610aac576040517f08c379a0000000000000000000000000000000000000000000000000000000008152600401610aa390611dca565b60405180910390fd5b8160000160009054906101000a900473ffffffffffffffffffffffffffffffffffffffff1673ffffffffffffffffffffffffffffffffffffffff166108fc349081150290604051600060405180830381858888f19350505050158015610b16573d6000803e3d6000fd5b50610bd7338360000160009054906101000a900473ffffffffffffffffffffffffffffffffffffffff168460010154856002018054610b54906119c3565b80601f0160208091040260200160405190810160405280929190818152602001828054610b80906119c3565b8015610bcd5780601f10610ba257610100808354040283529160200191610bcd565b820191906000526020600020905b815481529060010190602001808311610bb057829003601f168201915b5050505050610ebc565b8260018480549050610be99190611dea565b81548110610bfa57610bf9611c72565b5b9060005260206000209060040201838581548110610c1b57610c1a611c72565b5b90600052602060002090600402016000820160009054906101000a900473ffffffffffffffffffffffffffffffffffffffff168160000160006101000a81548173ffffffffffffffffffffffffffffffffffffffff021916908373ffffffffffffffffffffffffffffffffffffffff1602179055506001820154816001015560028201816002019081610cae9190611e34565b5060038201816003019081610cc39190611e34565b5090505082805480610cd857610cd7611f1c565b5b6001900381819060005260206000209060040201600080820160006101000a81549073ffffffffffffffffffffffffffffffffffffffff02191690556001820160009055600282016000610d2c9190611209565b600382016000610d3c9190611209565b5050905550505050565b60008054906101000a900473ffffffffffffffffffffffffffffffffffffffff1681565b610d726111cb565b33816000019073ffffffffffffffffffffffffffffffffffffffff16908173ffffffffffffffffffffffffffffffffffffffff168152505082816020018181525050818160400181905250610dc6336107fb565b8160600181905250600260008573ffffffffffffffffffffffffffffffffffffffff1673ffffffffffffffffffffffffffffffffffffffff16815260200190815260200160002081908060018154018082558091505060019003906000526020600020906004020160009091909190915060008201518160000160006101000a81548173ffffffffffffffffffffffffffffffffffffffff021916908373ffffffffffffffffffffffffffffffffffffffff160217905550602082015181600101556040820151816002019081610e9d9190611ba0565b506060820151816003019081610eb39190611ba0565b50505050505050565b6000610eff6040518060400160405280600181526020017f2d0000000000000000000000000000000000000000000000000000000000000081525085858561114a565b9050600360008673ffffffffffffffffffffffffffffffffffffffff1673ffffffffffffffffffffffffffffffffffffffff1681526020019081526020016000208190806001815401808255809150506001900390600052602060002090600502016000909190919091506000820151816000019081610f7f9190611ba0565b50602082015181600101556040820151816002019081610f9f9190611ba0565b5060608201518160030160006101000a81548173ffffffffffffffffffffffffffffffffffffffff021916908373ffffffffffffffffffffffffffffffffffffffff1602179055506080820151816004019081610ffc9190611ba0565b50505060006110426040518060400160405280600181526020017f2b0000000000000000000000000000000000000000000000000000000000000081525087868661114a565b9050600360008673ffffffffffffffffffffffffffffffffffffffff1673ffffffffffffffffffffffffffffffffffffffff16815260200190815260200160002081908060018154018082558091505060019003906000526020600020906005020160009091909190915060008201518160000190816110c29190611ba0565b506020820151816001015560408201518160020190816110e29190611ba0565b5060608201518160030160006101000a81548173ffffffffffffffffffffffffffffffffffffffff021916908373ffffffffffffffffffffffffffffffffffffffff160217905550608082015181600401908161113f9190611ba0565b505050505050505050565b611152611249565b61115a611249565b8581600001819052508381602001818152505082816040018190525084816060019073ffffffffffffffffffffffffffffffffffffffff16908173ffffffffffffffffffffffffffffffffffffffff16815250506111b7856107fb565b816080018190525080915050949350505050565b6040518060800160405280600073ffffffffffffffffffffffffffffffffffffffff1681526020016000815260200160608152602001606081525090565b508054611215906119c3565b6000825580601f106112275750611246565b601f016020900490600052602060002090810190611245919061128e565b5b50565b6040518060a00160405280606081526020016000815260200160608152602001600073ffffffffffffffffffffffffffffffffffffffff168152602001606081525090565b5b808211156112a757600081600090555060010161128f565b5090565b6000604051905090565b600080fd5b600080fd5b600080fd5b600080fd5b6000601f19601f8301169050919050565b7f4e487b7100000000000000000000000000000000000000000000000000000000600052604160045260246000fd5b611312826112c9565b810181811067ffffffffffffffff82111715611331576113306112da565b5b80604052505050565b60006113446112ab565b90506113508282611309565b919050565b600067ffffffffffffffff8211156113705761136f6112da565b5b611379826112c9565b9050602081019050919050565b82818337600083830152505050565b60006113a86113a384611355565b61133a565b9050828152602081018484840111156113c4576113c36112c4565b5b6113cf848285611386565b509392505050565b600082601f8301126113ec576113eb6112bf565b5b81356113fc848260208601611395565b91505092915050565b60006020828403121561141b5761141a6112b5565b5b600082013567ffffffffffffffff811115611439576114386112ba565b5b611445848285016113d7565b91505092915050565b600073ffffffffffffffffffffffffffffffffffffffff82169050919050565b60006114798261144e565b9050919050565b6114898161146e565b811461149457600080fd5b50565b6000813590506114a681611480565b92915050565b6000602082840312156114c2576114c16112b5565b5b60006114d084828501611497565b91505092915050565b600081519050919050565b600082825260208201905092915050565b6000819050602082019050919050565b61150e8161146e565b82525050565b6000819050919050565b61152781611514565b82525050565b600081519050919050565b600082825260208201905092915050565b60005b8381101561156757808201518184015260208101905061154c565b60008484015250505050565b600061157e8261152d565b6115888185611538565b9350611598818560208601611549565b6115a1816112c9565b840191505092915050565b60006080830160008301516115c46000860182611505565b5060208301516115d7602086018261151e565b50604083015184820360408601526115ef8282611573565b915050606083015184820360608601526116098282611573565b9150508091505092915050565b600061162283836115ac565b905092915050565b6000602082019050919050565b6000611642826114d9565b61164c81856114e4565b93508360208202850161165e856114f5565b8060005b8581101561169a578484038952815161167b8582611616565b94506116868361162a565b925060208a01995050600181019050611662565b50829750879550505050505092915050565b600060208201905081810360008301526116c68184611637565b905092915050565b600081519050919050565b600082825260208201905092915050565b6000819050602082019050919050565b600060a08301600083015184820360008601526117178282611573565b915050602083015161172c602086018261151e565b50604083015184820360408601526117448282611573565b91505060608301516117596060860182611505565b50608083015184820360808601526117718282611573565b9150508091505092915050565b600061178a83836116fa565b905092915050565b6000602082019050919050565b60006117aa826116ce565b6117b481856116d9565b9350836020820285016117c6856116ea565b8060005b8581101561180257848403895281516117e3858261177e565b94506117ee83611792565b925060208a019950506001810190506117ca565b50829750879550505050505092915050565b6000602082019050818103600083015261182e818461179f565b905092915050565b600082825260208201905092915050565b60006118528261152d565b61185c8185611836565b935061186c818560208601611549565b611875816112c9565b840191505092915050565b6000602082019050818103600083015261189a8184611847565b905092915050565b6118ab81611514565b81146118b657600080fd5b50565b6000813590506118c8816118a2565b92915050565b6000602082840312156118e4576118e36112b5565b5b60006118f2848285016118b9565b91505092915050565b6119048161146e565b82525050565b600060208201905061191f60008301846118fb565b92915050565b60008060006060848603121561193e5761193d6112b5565b5b600061194c86828701611497565b935050602061195d868287016118b9565b925050604084013567ffffffffffffffff81111561197e5761197d6112ba565b5b61198a868287016113d7565b9150509250925092565b7f4e487b7100000000000000000000000000000000000000000000000000000000600052602260045260246000fd5b600060028204905060018216806119db57607f821691505b6020821081036119ee576119ed611994565b5b50919050565b60008190508160005260206000209050919050565b60006020601f8301049050919050565b600082821b905092915050565b600060088302611a567fffffffffffffffffffffffffffffffffffffffffffffffffffffffffffffffff82611a19565b611a608683611a19565b95508019841693508086168417925050509392505050565b6000819050919050565b6000611a9d611a98611a9384611514565b611a78565b611514565b9050919050565b6000819050919050565b611ab783611a82565b611acb611ac382611aa4565b848454611a26565b825550505050565b600090565b611ae0611ad3565b611aeb818484611aae565b505050565b5b81811015611b0f57611b04600082611ad8565b600181019050611af1565b5050565b601f821115611b5457611b25816119f4565b611b2e84611a09565b81016020851015611b3d578190505b611b51611b4985611a09565b830182611af0565b50505b505050565b600082821c905092915050565b6000611b7760001984600802611b59565b1980831691505092915050565b6000611b908383611b66565b9150826002028217905092915050565b611ba98261152d565b67ffffffffffffffff811115611bc257611bc16112da565b5b611bcc82546119c3565b611bd7828285611b13565b600060209050601f831160018114611c0a5760008415611bf8578287015190505b611c028582611b84565b865550611c6a565b601f198416611c18866119f4565b60005b82811015611c4057848901518255600182019150602085019450602081019050611c1b565b86831015611c5d5784890151611c59601f891682611b66565b8355505b6001600288020188555050505b505050505050565b7f4e487b7100000000000000000000000000000000000000000000000000000000600052603260045260246000fd5b7f496e76616c696420526571756573740000000000000000000000000000000000600082015250565b6000611cd7600f83611836565b9150611ce282611ca1565b602082019050919050565b60006020820190508181036000830152611d0681611cca565b9050919050565b7f4e487b7100000000000000000000000000000000000000000000000000000000600052601160045260246000fd5b6000611d4782611514565b9150611d5283611514565b9250828202611d6081611514565b91508282048414831517611d7757611d76611d0d565b5b5092915050565b7f496e636f727265637420616d6f756e7400000000000000000000000000000000600082015250565b6000611db4601083611836565b9150611dbf82611d7e565b602082019050919050565b60006020820190508181036000830152611de381611da7565b9050919050565b6000611df582611514565b9150611e0083611514565b9250828203905081811115611e1857611e17611d0d565b5b92915050565b600081549050611e2d816119c3565b9050919050565b818103611e42575050611f1a565b611e4b82611e1e565b67ffffffffffffffff811115611e6457611e636112da565b5b611e6e82546119c3565b611e79828285611b13565b6000601f831160018114611ea85760008415611e96578287015490505b611ea08582611b84565b865550611f13565b601f198416611eb6876119f4565b9650611ec1866119f4565b60005b82811015611ee957848901548255600182019150600185019450602081019050611ec4565b86831015611f065784890154611f02601f891682611b66565b8355505b6001600288020188555050505b5050505050505b565b7f4e487b7100000000000000000000000000000000000000000000000000000000600052603160045260246000fdfea26469706673582212206745285fc438fbe53e7103910cc4b8d76aa01c5de1e27d43d95f8de206eeca4564736f6c63430008180033",
  "linkReferences": {},
  "deployedLinkReferences": {}
}